:100000000EC015C014C013C012C011C010C00FC064
:100010000EC00DC00CC00BC00AC009C008C011241E
:100020001FBECFE5D2E0DEBFCDBF13D028C0E8CFE2
:10003000B99A12BE1ABC13BE8AB580648ABD8AB54D
:1000400082608ABD83B7816083BF88E689BD0895D9
:100050000895EEDFC19A2FEF81EE94E021508040A9
:100060009040E1F700C00000C1982FEF81EE94E0CE
:10007000215080409040E1F700C00000EBCFF894A1
:02008000FFCFB0
:00000001FF
